:100000000C942A000C9436030C9447000C9447007F
:100010000C9447000C9447000C94E0040C94530497
:100020000C9447000C94BB040C94E2030C948803DA
:100030000C9447000C9447000C9447000C94470024
:100040000C945F030C9447000C9447000C944700F9
:100050000C94470011241FBECFE5D8E0DEBFCDBF12
:1000600010E0A0E6B0E0EEEDFCE002C005900D92DD
:10007000AE3BB107D9F721E0AEEBB0E001C01D9275
:10008000AF32B207E1F70E9449000C946D060C9460
:1000900000000E946C050E9455000E94D3058AE072
:1000A0000E94DE050E947400FDCF0E94AC0181E039
:1000B0000E942A030E940D0380E790E00E941D0227
:1000C00060E081E00E94A30280E890E00E941D02AF
:1000D0002FEF89E79FE3215080409040E1F700C077
:1000E00000000E949F0208958F929F92AF92BF924C
:1000F000CF92DF92EF92FF928091CB00833009F094
:10010000C4C04091C7005091C8006091C90070916F
:10011000CA008091C3009091C400A091C500B09125
:10012000C60084179507A607B70708F0AEC0409130
:10013000BF005091C0006091C1007091C2008091D9
:10014000C7009091C800A091C900B091CA0084175F
:100150009507A607B70708F098C08091BE008330C6
:1001600018F48F5F8093BE004091C7005091C80083
:100170006091C9007091CA008091C3009091C40041
:10018000A091C500B091C6009A01AB01281B390BA4
:100190004A0B5B0BC090BF00D090C000E090C10044
:1001A000F090C2008091C3009091C400A091C5005E
:1001B000B091C600C81AD90AEA0AFB0AA4E6B0E060
:1001C0000E943F06A70196010E94FE0549015A01BF
:1001D000A091FD00B091FE00A70196010E943F068C
:1001E0009B01AC0160E074E284EF90E00E94FE05A8
:1001F00069017A0160E080E00E94A3028FE890E04C
:100200000E941D028091BE00833020F487EA90E0B6
:100210000E941D026BE080E00E94A302C501B401B0
:10022000882799270E9430028BE990E00E941D02E6
:1002300060E081E00E94A3028DE990E00E941D022F
:100240008091BE00833020F483EA90E00E941D027A
:1002500065E081E00E94A302C701B60188279927C3
:100260000E9430028CE890E00E941D022FEF80E790
:1002700092E0215080409040E1F700C000008FEFF5
:100280008093CB0089B7806289BFFF90EF90DF90A9
:10029000CF90BF90AF909F908F900895CF93C82F2D
:1002A00060E081E00E94BB0260E082E00E94BB024D
:1002B000C4FB662760F983E00E94BB02C5FB66278A
:1002C00060F984E00E94BB02C6FB662760F985E006
:1002D0000E94BB026C2F661F6627661F86E00E9485
:1002E000BB0261E082E00E94BB028FE99FE00197C0
:1002F000F1F700C0000060E082E00E94BB026C2FBA
:10030000617083E00E94BB02C1FB662760F984E054
:100310000E94BB02C2FB662760F985E00E94BB0217
:10032000C3FB662760F986E00E94BB0261E082E0C1
:100330000E94BB028FE99FE00197F1F700C0000027
:1003400060E082E00E94BB028FE19EE40197F1F73A
:1003500000C00000CF91089583E30E944E0182E324
:100360000E944E0188E20E944E018CE00E944E01E4
:1003700081E00E944E0186E00E944E0182E00E94D0
:100380004E0108951F93CF93DF931F92CDB7DEB731
:10039000182F198261E081E00E94BB0260E082E0D8
:1003A0000E94BB02BE016F5F7F4F80E00E94FD0292
:1003B000612F6695687789818778682B80E00E9435
:1003C000EF0261E082E00E94BB028FE99FE00197AB
:1003D000F1F700C0000060E082E00E94BB02BE01B5
:1003E0006F5F7F4F80E00E94FD02812F90E0880FB9
:1003F000991F880F991F880F991F698167788877DF
:10040000682B80E00E94EF0261E082E00E94BB0264
:100410008FE99FE00197F1F700C0000060E082E003
:100420000E94BB028FE19EE40197F1F700C000003B
:100430000F90DF91CF911F9108950F931F93CF934A
:100440008C01C0E003C00E94C201CF5FF801EC0F35
:10045000F11D80818111F7CFCF911F910F910895E8
:100460008F929F92AF92BF92CF92DF92EF92FF92C4
:100470006B017C01611571058105910521F480E313
:100480000E94C2010DC099235CF48DE20E94C2015A
:10049000F094E094D094C094C11CD11CE11CF11CD8
:1004A00061E070E080E090E024C0DC01CB01880FC7
:1004B000991FAA1FBB1F4C015D01880C991CAA1C27
:1004C000BB1C880C991CAA1CBB1C880E991EAA1E5A
:1004D000BB1EC701B6012AE030E040E050E00E94B8
:1004E0002006680D791D8A1D9B1DC22ED32EE42E79
:1004F000F52EC114D104E104F104B9F612C02AE0CA
:1005000030E040E050E00E94FE05C22ED32EE42EE3
:10051000F52E80E3860F0E94C2016C2D7D2D8E2D5D
:100520009F2D613071058105910549F7FF90EF908E
:10053000DF90CF90BF90AF909F908F90089581E013
:100540000E944E010895CF93DF9300D0CDB7DEB760
:1005500090E8998390EC9A83E1E0F0E0EC0FFD1FC6
:10056000E80FF11D8081860F0E944E010F900F90C1
:10057000DF91CF910895E82FE695E695E69587708F
:100580006623B9F0613051F5F0E0EE0FFF1FE25540
:10059000FF4F0190F081E02D408121E030E0B90172
:1005A00002C0660F771F8A95E2F7CB01842B808308
:1005B0000895F0E0EE0FFF1FE255FF4F0190F0812C
:1005C000E02D408121E030E0B90102C0660F771FC5
:1005D0008A95E2F7CB0180958423808308958695E0
:1005E00086958695E82FF0E0EE0FFF1FE255FF4F4E
:1005F0000190F081E02D608308958695869586951B
:10060000E82FF0E0EE0FFF1FE255FF4F0190F08161
:10061000E02D8081FB01808308950E94CC058EB57A
:1006200080648EBD89B7806289BF8091FD00909102
:10063000FE00929582958F7089279F708927A0E090
:10064000B0E08093FF0090930001A0930101B0936C
:1006500002010895882331F0813039F48FB7806822
:100660008FBF08958FB78F778FBF08951F920F9216
:100670000FB60F9211242F933F934F935F936F9375
:100680007F938F939F93AF93BF93EF93FF93E091EB
:10069000D500F091D600309709F00995FF91EF91C0
:1006A000BF91AF919F918F917F916F915F914F918A
:1006B0003F912F910F900FBE0F901F9018951F9292
:1006C0000F920FB60F9211242F933F934F935F9386
:1006D0006F937F938F939F93AF93BF93EF93FF930A
:1006E000E091F300F091F400309709F00995FF9143
:1006F000EF91BF91AF919F918F917F916F915F919A
:100700004F913F912F910F900FBE0F901F90189512
:100710001F920F920FB60F9211242F933F934F9376
:100720005F936F937F938F939F93AF93BF93EF9359
:10073000FF938091D1009091D200A091D300B0910D
:10074000D4000196A11DB11D8093D1009093D200D9
:10075000A093D300B093D4004091030150910401C1
:10076000609105017091060184179507A607B707E8
:10077000C1F41092D1001092D2001092D3001092C6
:10078000D4008091230190912401A0912501B09182
:10079000260182BFE091E900F091EA00309709F06C
:1007A0000995FF91EF91BF91AF919F918F917F91AB
:1007B0006F915F914F913F912F910F900FBE0F90CE
:1007C0001F9018951F920F920FB60F9211242F931E
:1007D0003F934F935F936F937F938F939F93AF93C9
:1007E000BF93EF93FF9380911B0190911C01A09107
:1007F0001D01B0911E01892B8A2B8B2BE1F18FEF0C
:100800008CBF8091CD009091CE00A091CF00B0918F
:10081000D00040911B0150911C0160911D0170910D
:100820001E0184179507A607B707C9F4E091E700F2
:10083000F091E800309709F009951092CD001092E0
:10084000CE001092CF001092D00080912B01909199
:100850002C01A0912D01B0912E018CBF13C00196E7
:10086000A11DB11D8093CD009093CE00A093CF0029
:10087000B093D00007C0E091E700F091E800309716
:1008800009F00995FF91EF91BF91AF919F918F91E1
:100890007F916F915F914F913F912F910F900FBE7C
:1008A0000F901F9018951F920F920FB60F92112460
:1008B0000F931F932F933F934F935F936F937F9368
:1008C0008F939F93AF93BF93EF93FF938091170103
:1008D00090911801A0911901B0911A01892B8A2BCE
:1008E0008B2B79F18FEF9FEF9BBD8ABD8091CC0060
:1008F000082F10E020E030E04091170150911801DE
:100900006091190170911A0104171507260737071E
:10091000A1F4E091E100F091E200309709F009952F
:100920001092CC0080911F0190912001A091210193
:10093000B09122019BBD8ABD0BC08F5F8093CC001C
:1009400007C0E091E100F091E200309709F00995CD
:10095000FF91EF91BF91AF919F918F917F916F9197
:100960005F914F913F912F911F910F910F900FBE6B
:100970000F901F9018951F920F920FB60F9211248F
:100980008F939F93AF93BF938091270190912801FC
:10099000A0912901B0912A010196A11DB11D80935A
:1009A000270190932801A0932901B0932A01BF91B8
:1009B000AF919F918F910F900FBE0F901F90189540
:1009C0001F920F920FB60F9211242F933F934F93C4
:1009D0005F936F937F938F939F93AF93BF93EF93A7
:1009E000FF938091CB008F5F8093CB008091CB00F1
:1009F0008130C1F486B597B5A0E0B0E08093C30024
:100A00009093C400A093C500B093C6001092270134
:100A1000109228011092290110922A018EB58F7B25
:100A20008EBD49C08091CB00823001F5E6B5F7B5A7
:100A300020912701309128014091290150912A01EC
:100A4000AFEFBFEF0E943F06DC01CB018E0F9F1F6F
:100A5000A11DB11D8093C7009093C800A093C90049
:100A6000B093CA008EB580648EBD25C08091CB0046
:100A7000833009F5E6B5F7B52091270130912801BB
:100A80004091290150912A01AFEFBFEF0E943F062C
:100A9000DC01CB018E0F9F1FA11DB11D8093BF00F4
:100AA0009093C000A093C100B093C2001DBC1CBCB9
:100AB00089B78F7D89BFFF91EF91BF91AF919F91D2
:100AC0008F917F916F915F914F913F912F910F90F7
:100AD0000FBE0F901F90189520E03EC0E22FF0E06F
:100AE000EE0FFF1FE05AFF4F9081892F8695869564
:100AF0008695977031813323C1F0313061F5E82F4D
:100B0000F0E0EE0FFF1FEA54FF4F0190F081E02D5F
:100B1000308141E050E0BA0102C0660F771F9A951C
:100B2000E2F7CB01832B808316C0E82FF0E0EE0FB5
:100B3000FF1FEA54FF4F0190F081E02D308141E02A
:100B400050E0BA0102C0660F771F9A95E2F7CB0119
:100B50008095832380832F5F283008F4BFCF0895CA
:100B60008EB5887F81608EBD81E090E09093FE001D
:100B70008093FD0008958EB58F7E8EBD8EB5877FE4
:100B80008EBD8FB58D7F8FBD8FB58E7F8FBD089544
:100B900089B7846089BF08950E94BB050E94C8057B
:100BA0000E94B005089583B7806483BF83B78860CF
:100BB00083BF83B78F7C806283BF0895982F80E0C6
:100BC00064E670E00E94EA056CBF83B7887F8460AA
:100BD00083BF089597FB072E16F4009407D077FD86
:100BE00009D00E944A0607FC05D03EF490958195F5
:100BF0009F4F0895709561957F4F0895A1E21A2E39
:100C0000AA1BBB1BFD010DC0AA1FBB1FEE1FFF1FB0
:100C1000A217B307E407F50720F0A21BB30BE40B00
:100C2000F50B661F771F881F991F1A9469F7609547
:100C30007095809590959B01AC01BD01CF01089501
:100C4000052E97FB1EF400940E94370657FD07D02F
:100C50000E94FE0507FC03D04EF40C943706509515
:100C60004095309521953F4F4F4F5F4F0895909598
:100C70008095709561957F4F8F4F9F4F08950E948B
:100C80005E06A59F900DB49F900DA49F800D911DB1
:100C900011240895AA1BBB1B51E107C0AA1FBB1F4B
:100CA000A617B70710F0A61BB70B881F991F5A95F8
:100CB000A9F780959095BC01CD010895A29FB00140
:100CC000B39FC001A39F700D811D1124911DB29F80
:0E0CD000700D811D1124911D0895F894FFCF21
:100CDE000201010103010401050106011E000B01C1
:100CEE00466F72202D3E20416363757261637900F9
:100CFE0052616E676520312D34303030487A0044B1
:100D0E00757479204379636C653A002500467265E7
:100D1E00713A0020202020202020202020003B009F
:0E0D2E003800350032003A0037003400310042
:00000001FF
